:0300000002031DDB
:0C031D00787FE4F6D8FD75811202000321
:100198005F5F5F57454C4C434F4D20544F5F5F5F47
:1001A800005F5F5F4D592050524F4A4543545F5F8F
:1001B8005F005F5F5F5F4E484F4D202031335F5FC8
:1001C8005F5F005F5F5F414443202056414C5545C7
:0801D8005F5F5F002E0056007E
:1000030012028D1203297BFF7A0179981202197F5C
:10001300C01203101202137F601202467F01120303
:10002300107F011202467F801203101202137FC059
:100033001203107BFF7A0179BA1202197F60120250
:10004300467F011203107F011202467F80120310C4
:100053007BFF7A0179CB1202197FC51203101202BA
:10006300AF8E088F091201E01200E37F601202468F
:0200730080E724
:08023E008F80D2A17F017E0038
:10024600E4FDFCC3ED9FEC9E5015E4FBFA0BBB00EE
:0F025600010AEB64724A70F50DBD00010C80E4E3
:010265002276
:10014E00EF5440C4135407FEEF5480C413131354DA
:10015E00014EFEEF5420131313541F4EFEEF541096
:10016E00C3134EFEEF540825E04EFEEF5404333316
:10017E003354F84EFEEF5402C43354E04EFEEF54A7
:09018E0001C433333354804EFFE9
:010197002245
:10028D007F381203101202427F0F12031012024226
:10029D001203101202427F801203107F017E0002B2
:0202AD00024607
:0D03100012014EC2A012023EC2A10202461E
:030300002430FFA7
:0D03030012014ED2A012023EC2A10202461B
:060213007BFF7A0179A9CE
:100219008B108A118912AB10AA11A91212007560EC
:10022900130512E5127002051114F9120075FF1277
:05023900030380E22236
:0400E300AB07AA06B7
:1000E7007C007D0A12008E8E0E8F0F7C007D0A1217
:1000F700008EEF75F00A84F50AEF75F00A8485F033
:100107000BAE0EAF0F7C007D0A12008E8D0CAE0277
:10011700AF037C007D0A12008E8D0DE50A120300E5
:100127007BFF7A0179DC120219E50B120300E50C5B
:100137002430FF120303E50D2430FF1203037BFF76
:070147007A0179DE020219C2
:07032900D2B3C2B0D2B22230
:1002D000E4FEC2B0EF30E704D2B18002C2B1D2B0C6
:0A02E000EF25E0FFC2B00EBE08E8F3
:0102EA0022F1
:1002EB00E4FEEF25E0FFD2B030B203430701C2B00A
:0402FB000EBE08EE3D
:0102FF0022DC
:10026600E4FDC2B0EF30E704D2B18002C2B1EE25A0
:10027600E0FED2B0EF25E0FF30B203430601C2B084
:060286000DBD08DEAF060D
:01028C00224F
:1002AF00C2B37F061202D0E4FF120266AD075305F8
:1002BF000F1202EBAC07D2B3AF05EFFEAD04EDFFAB
:0102CF00220C
:0401E000AD07AC06B5
:1001E4007B887A13E4F50AF50BF9EAC313FAEB13E7
:1001F400FBEC30E30AEB250BF50BEA350AF50AEDC7
:0E02040025E0FDEC33FC09B90BE0AE0AAF0BB0
:0102120022C9
:10007500BB010689828A83E0225002E722BBFE0289
:09008500E32289828A83E49322BC
:10008E00BC000BBE0029EF8DF084FFADF022E4CC56
:10009E00F875F008EF2FFFEE33FEEC33FCEE9DEC1F
:1000AE00984005FCEE9DFE0FD5F0E9E4CEFD22ED65
:1000BE00F8F5F0EE8420D21CFEADF075F008EF2FAF
:1000CE00FFED33FD4007985006D5F0F222C398FDA0
:0500DE000FD5F0EA223D
:00000001FF
